{
  "contractName": "apps",
  "abi": [
    {
      "inputs": [],
      "stateMutability": "nonpayable",
      "type": "constructor"
    },
    {
      "anonymous": false,
      "inputs": [
        {
          "indexed": true,
          "internalType": "address",
          "name": "owner",
          "type": "address"
        },
        {
          "indexed": true,
          "internalType": "address",
          "name": "approved",
          "type": "address"
        },
        {
          "indexed": true,
          "internalType": "uint256",
          "name": "tokenId",
          "type": "uint256"
        }
      ],
      "name": "Approval",
      "type": "event"
    },
    {
      "anonymous": false,
      "inputs": [
        {
          "indexed": true,
          "internalType": "address",
          "name": "owner",
          "type": "address"
        },
        {
          "indexed": true,
          "internalType": "address",
          "name": "operator",
          "type": "address"
        },
        {
          "indexed": false,
          "internalType": "bool",
          "name": "approved",
          "type": "bool"
        }
      ],
      "name": "ApprovalForAll",
      "type": "event"
    },
    {
      "anonymous": false,
      "inputs": [
        {
          "indexed": true,
          "internalType": "address",
          "name": "from",
          "type": "address"
        },
        {
          "indexed": true,
          "internalType": "address",
          "name": "to",
          "type": "address"
        },
        {
          "indexed": true,
          "internalType": "uint256",
          "name": "tokenId",
          "type": "uint256"
        }
      ],
      "name": "Transfer",
      "type": "event"
    },
    {
      "inputs": [
        {
          "internalType": "address",
          "name": "to",
          "type": "address"
        },
        {
          "internalType": "uint256",
          "name": "tokenId",
          "type": "uint256"
        }
      ],
      "name": "approve",
      "outputs": [],
      "stateMutability": "nonpayable",
      "type": "function"
    },
    {
      "inputs": [
        {
          "internalType": "address",
          "name": "owner",
          "type": "address"
        }
      ],
      "name": "balanceOf",
      "outputs": [
        {
          "internalType": "uint256",
          "name": "",
          "type": "uint256"
        }
      ],
      "stateMutability": "view",
      "type": "function",
      "constant": true
    },
    {
      "inputs": [
        {
          "internalType": "uint256",
          "name": "tokenId",
          "type": "uint256"
        }
      ],
      "name": "getApproved",
      "outputs": [
        {
          "internalType": "address",
          "name": "",
          "type": "address"
        }
      ],
      "stateMutability": "view",
      "type": "function",
      "constant": true
    },
    {
      "inputs": [
        {
          "internalType": "address",
          "name": "owner",
          "type": "address"
        },
        {
          "internalType": "address",
          "name": "operator",
          "type": "address"
        }
      ],
      "name": "isApprovedForAll",
      "outputs": [
        {
          "internalType": "bool",
          "name": "",
          "type": "bool"
        }
      ],
      "stateMutability": "view",
      "type": "function",
      "constant": true
    },
    {
      "inputs": [],
      "name": "name",
      "outputs": [
        {
          "internalType": "string",
          "name": "",
          "type": "string"
        }
      ],
      "stateMutability": "view",
      "type": "function",
      "constant": true
    },
    {
      "inputs": [],
      "name": "owner",
      "outputs": [
        {
          "internalType": "address",
          "name": "",
          "type": "address"
        }
      ],
      "stateMutability": "view",
      "type": "function",
      "constant": true
    },
    {
      "inputs": [
        {
          "internalType": "uint256",
          "name": "tokenId",
          "type": "uint256"
        }
      ],
      "name": "ownerOf",
      "outputs": [
        {
          "internalType": "address",
          "name": "",
          "type": "address"
        }
      ],
      "stateMutability": "view",
      "type": "function",
      "constant": true
    },
    {
      "inputs": [
        {
          "internalType": "address",
          "name": "from",
          "type": "address"
        },
        {
          "internalType": "address",
          "name": "to",
          "type": "address"
        },
        {
          "internalType": "uint256",
          "name": "tokenId",
          "type": "uint256"
        }
      ],
      "name": "safeTransferFrom",
      "outputs": [],
      "stateMutability": "nonpayable",
      "type": "function"
    },
    {
      "inputs": [
        {
          "internalType": "address",
          "name": "from",
          "type": "address"
        },
        {
          "internalType": "address",
          "name": "to",
          "type": "address"
        },
        {
          "internalType": "uint256",
          "name": "tokenId",
          "type": "uint256"
        },
        {
          "internalType": "bytes",
          "name": "data",
          "type": "bytes"
        }
      ],
      "name": "safeTransferFrom",
      "outputs": [],
      "stateMutability": "nonpayable",
      "type": "function"
    },
    {
      "inputs": [
        {
          "internalType": "address",
          "name": "operator",
          "type": "address"
        },
        {
          "internalType": "bool",
          "name": "approved",
          "type": "bool"
        }
      ],
      "name": "setApprovalForAll",
      "outputs": [],
      "stateMutability": "nonpayable",
      "type": "function"
    },
    {
      "inputs": [
        {
          "internalType": "bytes4",
          "name": "interfaceId",
          "type": "bytes4"
        }
      ],
      "name": "supportsInterface",
      "outputs": [
        {
          "internalType": "bool",
          "name": "",
          "type": "bool"
        }
      ],
      "stateMutability": "view",
      "type": "function",
      "constant": true
    },
    {
      "inputs": [],
      "name": "symbol",
      "outputs": [
        {
          "internalType": "string",
          "name": "",
          "type": "string"
        }
      ],
      "stateMutability": "view",
      "type": "function",
      "constant": true
    },
    {
      "inputs": [
        {
          "internalType": "uint256",
          "name": "tokenId",
          "type": "uint256"
        }
      ],
      "name": "tokenURI",
      "outputs": [
        {
          "internalType": "string",
          "name": "",
          "type": "string"
        }
      ],
      "stateMutability": "view",
      "type": "function",
      "constant": true
    },
    {
      "inputs": [
        {
          "internalType": "address",
          "name": "from",
          "type": "address"
        },
        {
          "internalType": "address",
          "name": "to",
          "type": "address"
        },
        {
          "internalType": "uint256",
          "name": "tokenId",
          "type": "uint256"
        }
      ],
      "name": "transferFrom",
      "outputs": [],
      "stateMutability": "nonpayable",
      "type": "function"
    },
    {
      "inputs": [
        {
          "internalType": "string",
          "name": "_app",
          "type": "string"
        }
      ],
      "name": "mint",
      "outputs": [],
      "stateMutability": "nonpayable",
      "type": "function"
    },
    {
      "inputs": [],
      "name": "getAppList",
      "outputs": [
        {
          "internalType": "string[]",
          "name": "",
          "type": "string[]"
        }
      ],
      "stateMutability": "view",
      "type": "function",
      "constant": true
    }
  ],
  "bytecode": "0x608060405233600760006101000a81548173ffffffffffffffffffffffffffffffffffffffff021916908373ffffffffffffffffffffffffffffffffffffffff1602179055503480156200005257600080fd5b506040518060400160405280600481526020017f61707073000000000000000000000000000000000000000000000000000000008152506040518060400160405280600381526020017f41504f00000000000000000000000000000000000000000000000000000000008152508160009081620000d0919062000365565b508060019081620000e2919062000365565b5050506200044c565b600081519050919050565b7f4e487b7100000000000000000000000000000000000000000000000000000000600052604160045260246000fd5b7f4e487b7100000000000000000000000000000000000000000000000000000000600052602260045260246000fd5b600060028204905060018216806200016d57607f821691505b60208210810362000183576200018262000125565b5b50919050565b60008190508160005260206000209050919050565b60006020601f8301049050919050565b600082821b905092915050565b600060088302620001ed7fffffffffffffffffffffffffffffffffffffffffffffffffffffffffffffffff82620001ae565b620001f98683620001ae565b95508019841693508086168417925050509392505050565b6000819050919050565b6000819050919050565b600062000246620002406200023a8462000211565b6200021b565b62000211565b9050919050565b6000819050919050565b620002628362000225565b6200027a62000271826200024d565b848454620001bb565b825550505050565b600090565b6200029162000282565b6200029e81848462000257565b505050565b5b81811015620002c657620002ba60008262000287565b600181019050620002a4565b5050565b601f8211156200031557620002df8162000189565b620002ea846200019e565b81016020851015620002fa578190505b6200031262000309856200019e565b830182620002a3565b50505b505050565b600082821c905092915050565b60006200033a600019846008026200031a565b1980831691505092915050565b600062000355838362000327565b9150826002028217905092915050565b6200037082620000eb565b67ffffffffffffffff8111156200038c576200038b620000f6565b5b62000398825462000154565b620003a5828285620002ca565b600060209050601f831160018114620003dd5760008415620003c8578287015190505b620003d4858262000347565b86555062000444565b601f198416620003ed8662000189565b60005b828110156200041757848901518255600182019150602085019450602081019050620003f0565b8683101562000437578489015162000433601f89168262000327565b8355505b6001600288020188555050505b505050505050565b612a6f806200045c6000396000f3fe608060405234801561001057600080fd5b50600436106101005760003560e01c80638da5cb5b11610097578063c87b56dd11610066578063c87b56dd146102ab578063d0f34b10146102db578063d85d3d27146102f9578063e985e9c51461031557610100565b80638da5cb5b1461023757806395d89b4114610255578063a22cb46514610273578063b88d4fde1461028f57610100565b806323b872dd116100d357806323b872dd1461019f57806342842e0e146101bb5780636352211e146101d757806370a082311461020757610100565b806301ffc9a71461010557806306fdde0314610135578063081812fc14610153578063095ea7b314610183575b600080fd5b61011f600480360381019061011a9190611765565b610345565b60405161012c91906117ad565b60405180910390f35b61013d610427565b60405161014a9190611858565b60405180910390f35b61016d600480360381019061016891906118b0565b6104b9565b60405161017a919061191e565b60405180910390f35b61019d60048036038101906101989190611965565b6104ff565b005b6101b960048036038101906101b491906119a5565b610616565b005b6101d560048036038101906101d091906119a5565b610676565b005b6101f160048036038101906101ec91906118b0565b610696565b6040516101fe919061191e565b60405180910390f35b610221600480360381019061021c91906119f8565b610747565b60405161022e9190611a34565b60405180910390f35b61023f6107fe565b60405161024c919061191e565b60405180910390f35b61025d610824565b60405161026a9190611858565b60405180910390f35b61028d60048036038101906102889190611a7b565b6108b6565b005b6102a960048036038101906102a49190611bf0565b6108cc565b005b6102c560048036038101906102c091906118b0565b61092e565b6040516102d29190611858565b60405180910390f35b6102e3610996565b6040516102f09190611d7f565b60405180910390f35b610313600480360381019061030e9190611e42565b610a6f565b005b61032f600480360381019061032a9190611e8b565b610abc565b60405161033c91906117ad565b60405180910390f35b60007f80ac58cd000000000000000000000000000000000000000000000000000000007bffffffffffffffffffffffffffffffffffffffffffffffffffffffff1916827bffffffffffffffffffffffffffffffffffffffffffffffffffffffff1916148061041057507f5b5e139f000000000000000000000000000000000000000000000000000000007bffffffffffffffffffffffffffffffffffffffffffffffffffffffff1916827bffffffffffffffffffffffffffffffffffffffffffffffffffffffff1916145b80610420575061041f82610b50565b5b9050919050565b60606000805461043690611efa565b80601f016020809104026020016040519081016040528092919081815260200182805461046290611efa565b80156104af5780601f10610484576101008083540402835291602001916104af565b820191906000526020600020905b81548152906001019060200180831161049257829003601f168201915b5050505050905090565b60006104c482610bba565b6004600083815260200190815260200160002060009054906101000a900473ffffffffffffffffffffffffffffffffffffffff169050919050565b600061050a82610696565b90508073ffffffffffffffffffffffffffffffffffffffff168373ffffffffffffffffffffffffffffffffffffffff160361057a576040517f08c379a000000000000000000000000000000000000000000000000000000000815260040161057190611f9d565b60405180910390fd5b8073ffffffffffffffffffffffffffffffffffffffff16610599610c05565b73ffffffffffffffffffffffffffffffffffffffff1614806105c857506105c7816105c2610c05565b610abc565b5b610607576040517f08c379a00000000000000000000000000000000000000000000000000000000081526004016105fe9061202f565b60405180910390fd5b6106118383610c0d565b505050565b610627610621610c05565b82610cc6565b610666576040517f08c379a000000000000000000000000000000000000000000000000000000000815260040161065d906120c1565b60405180910390fd5b610671838383610d5b565b505050565b610691838383604051806020016040528060008152506108cc565b505050565b6000806002600084815260200190815260200160002060009054906101000a900473ffffffffffffffffffffffffffffffffffffffff169050600073ffffffffffffffffffffffffffffffffffffffff168173ffffffffffffffffffffffffffffffffffffffff160361073e576040517f08c379a00000000000000000000000000000000000000000000000000000000081526004016107359061212d565b60405180910390fd5b80915050919050565b60008073ffffffffffffffffffffffffffffffffffffffff168273ffffffffffffffffffffffffffffffffffffffff16036107b7576040517f08c379a00000000000000000000000000000000000000000000000000000000081526004016107ae906121bf565b60405180910390fd5b600360008373ffffffffffffffffffffffffffffffffffffffff1673ffffffffffffffffffffffffffffffffffffffff168152602001908152602001600020549050919050565b600760009054906101000a900473ffffffffffffffffffffffffffffffffffffffff1681565b60606001805461083390611efa565b80601f016020809104026020016040519081016040528092919081815260200182805461085f90611efa565b80156108ac5780601f10610881576101008083540402835291602001916108ac565b820191906000526020600020905b81548152906001019060200180831161088f57829003601f168201915b5050505050905090565b6108c86108c1610c05565b8383610fc1565b5050565b6108dd6108d7610c05565b83610cc6565b61091c576040517f08c379a0000000000000000000000000000000000000000000000000000000008152600401610913906120c1565b60405180910390fd5b6109288484848461112d565b50505050565b606061093982610bba565b6000610943611189565b90506000815111610963576040518060200160405280600081525061098e565b8061096d846111a0565b60405160200161097e92919061221b565b6040516020818303038152906040525b915050919050565b60606006805480602002602001604051908101604052809291908181526020016000905b82821015610a665783829060005260206000200180546109d990611efa565b80601f0160208091040260200160405190810160405280929190818152602001828054610a0590611efa565b8015610a525780601f10610a2757610100808354040283529160200191610a52565b820191906000526020600020905b815481529060010190602001808311610a3557829003601f168201915b5050505050815260200190600101906109ba565b50505050905090565b60006006805490509050600682908060018154018082558091505060019003906000526020600020016000909190919091509081610aad91906123eb565b50610ab83382611300565b5050565b6000600560008473ffffffffffffffffffffffffffffffffffffffff1673ffffffffffffffffffffffffffffffffffffffff16815260200190815260200160002060008373ffffffffffffffffffffffffffffffffffffffff1673ffffffffffffffffffffffffffffffffffffffff16815260200190815260200160002060009054906101000a900460ff16905092915050565b60007f01ffc9a7000000000000000000000000000000000000000000000000000000007bffffffffffffffffffffffffffffffffffffffffffffffffffffffff1916827bffffffffffffffffffffffffffffffffffffffffffffffffffffffff1916149050919050565b610bc3816114d9565b610c02576040517f08c379a0000000000000000000000000000000000000000000000000000000008152600401610bf99061212d565b60405180910390fd5b50565b600033905090565b816004600083815260200190815260200160002060006101000a81548173ffffffffffffffffffffffffffffffffffffffff021916908373ffffffffffffffffffffffffffffffffffffffff160217905550808273ffffffffffffffffffffffffffffffffffffffff16610c8083610696565b73ffffffffffffffffffffffffffffffffffffffff167f8c5be1e5ebec7d5bd14f71427d1e84f3dd0314c0f7b2291e5b200ac8c7c3b92560405160405180910390a45050565b600080610cd283610696565b90508073ffffffffffffffffffffffffffffffffffffffff168473ffffffffffffffffffffffffffffffffffffffff161480610d145750610d138185610abc565b5b80610d5257508373ffffffffffffffffffffffffffffffffffffffff16610d3a846104b9565b73ffffffffffffffffffffffffffffffffffffffff16145b91505092915050565b8273ffffffffffffffffffffffffffffffffffffffff16610d7b82610696565b73ffffffffffffffffffffffffffffffffffffffff1614610dd1576040517f08c379a0000000000000000000000000000000000000000000000000000000008152600401610dc89061252f565b60405180910390fd5b600073ffffffffffffffffffffffffffffffffffffffff168273ffffffffffffffffffffffffffffffffffffffff1603610e40576040517f08c379a0000000000000000000000000000000000000000000000000000000008152600401610e37906125c1565b60405180910390fd5b610e4b838383611545565b610e56600082610c0d565b6001600360008573ffffffffffffffffffffffffffffffffffffffff1673ffffffffffffffffffffffffffffffffffffffff1681526020019081526020016000206000828254610ea69190612610565b925050819055506001600360008473ffffffffffffffffffffffffffffffffffffffff1673ffffffffffffffffffffffffffffffffffffffff1681526020019081526020016000206000828254610efd9190612644565b92505081905550816002600083815260200190815260200160002060006101000a81548173ffffffffffffffffffffffffffffffffffffffff021916908373ffffffffffffffffffffffffffffffffffffffff160217905550808273ffffffffffffffffffffffffffffffffffffffff168473ffffffffffffffffffffffffffffffffffffffff167fddf252ad1be2c89b69c2b068fc378daa952ba7f163c4a11628f55a4df523b3ef60405160405180910390a4610fbc83838361154a565b505050565b8173ffffffffffffffffffffffffffffffffffffffff168373ffffffffffffffffffffffffffffffffffffffff160361102f576040517f08c379a0000000000000000000000000000000000000000000000000000000008152600401611026906126c4565b60405180910390fd5b80600560008573ffffffffffffffffffffffffffffffffffffffff1673ffffffffffffffffffffffffffffffffffffffff16815260200190815260200160002060008473ffffffffffffffffffffffffffffffffffffffff1673ffffffffffffffffffffffffffffffffffffffff16815260200190815260200160002060006101000a81548160ff0219169083151502179055508173ffffffffffffffffffffffffffffffffffffffff168373ffffffffffffffffffffffffffffffffffffffff167f17307eab39ab6107e8899845ad3d59bd9653f200f220920489ca2b5937696c318360405161112091906117ad565b60405180910390a3505050565b611138848484610d5b565b6111448484848461154f565b611183576040517f08c379a000000000000000000000000000000000000000000000000000000000815260040161117a90612756565b60405180910390fd5b50505050565b606060405180602001604052806000815250905090565b6060600082036111e7576040518060400160405280600181526020017f300000000000000000000000000000000000000000000000000000000000000081525090506112fb565b600082905060005b6000821461121957808061120290612776565b915050600a8261121291906127ed565b91506111ef565b60008167ffffffffffffffff81111561123557611234611ac5565b5b6040519080825280601f01601f1916602001820160405280156112675781602001600182028036833780820191505090505b5090505b600085146112f4576001826112809190612610565b9150600a8561128f919061281e565b603061129b9190612644565b60f81b8183815181106112b1576112b061284f565b5b60200101907effffffffffffffffffffffffffffffffffffffffffffffffffffffffffffff1916908160001a905350600a856112ed91906127ed565b945061126b565b8093505050505b919050565b600073ffffffffffffffffffffffffffffffffffffffff168273ffffffffffffffffffffffffffffffffffffffff160361136f576040517f08c379a0000000000000000000000000000000000000000000000000000000008152600401611366906128ca565b60405180910390fd5b611378816114d9565b156113b8576040517f08c379a00000000000000000000000000000000000000000000000000000000081526004016113af90612936565b60405180910390fd5b6113c460008383611545565b6001600360008473ffffffffffffffffffffffffffffffffffffffff1673ffffffffffffffffffffffffffffffffffffffff16815260200190815260200160002060008282546114149190612644565b92505081905550816002600083815260200190815260200160002060006101000a81548173ffffffffffffffffffffffffffffffffffffffff021916908373ffffffffffffffffffffffffffffffffffffffff160217905550808273ffffffffffffffffffffffffffffffffffffffff16600073ffffffffffffffffffffffffffffffffffffffff167fddf252ad1be2c89b69c2b068fc378daa952ba7f163c4a11628f55a4df523b3ef60405160405180910390a46114d56000838361154a565b5050565b60008073ffffffffffffffffffffffffffffffffffffffff166002600084815260200190815260200160002060009054906101000a900473ffffffffffffffffffffffffffffffffffffffff1673ffffffffffffffffffffffffffffffffffffffff1614159050919050565b505050565b505050565b60006115708473ffffffffffffffffffffffffffffffffffffffff166116d6565b156116c9578373ffffffffffffffffffffffffffffffffffffffff1663150b7a02611599610c05565b8786866040518563ffffffff1660e01b81526004016115bb94939291906129ab565b6020604051808303816000875af19250505080156115f757506040513d601f19601f820116820180604052508101906115f49190612a0c565b60015b611679573d8060008114611627576040519150601f19603f3d011682016040523d82523d6000602084013e61162c565b606091505b506000815103611671576040517f08c379a000000000000000000000000000000000000000000000000000000000815260040161166890612756565b60405180910390fd5b805181602001fd5b63150b7a0260e01b7bffffffffffffffffffffffffffffffffffffffffffffffffffffffff1916817bffffffffffffffffffffffffffffffffffffffffffffffffffffffff1916149150506116ce565b600190505b949350505050565b6000808273ffffffffffffffffffffffffffffffffffffffff163b119050919050565b6000604051905090565b600080fd5b600080fd5b60007fffffffff0000000000000000000000000000000000000000000000000000000082169050919050565b6117428161170d565b811461174d57600080fd5b50565b60008135905061175f81611739565b92915050565b60006020828403121561177b5761177a611703565b5b600061178984828501611750565b91505092915050565b60008115159050919050565b6117a781611792565b82525050565b60006020820190506117c2600083018461179e565b92915050565b600081519050919050565b600082825260208201905092915050565b60005b838110156118025780820151818401526020810190506117e7565b60008484015250505050565b6000601f19601f8301169050919050565b600061182a826117c8565b61183481856117d3565b93506118448185602086016117e4565b61184d8161180e565b840191505092915050565b60006020820190508181036000830152611872818461181f565b905092915050565b6000819050919050565b61188d8161187a565b811461189857600080fd5b50565b6000813590506118aa81611884565b92915050565b6000602082840312156118c6576118c5611703565b5b60006118d48482850161189b565b91505092915050565b600073ffffffffffffffffffffffffffffffffffffffff82169050919050565b6000611908826118dd565b9050919050565b611918816118fd565b82525050565b6000602082019050611933600083018461190f565b92915050565b611942816118fd565b811461194d57600080fd5b50565b60008135905061195f81611939565b92915050565b6000806040838503121561197c5761197b611703565b5b600061198a85828601611950565b925050602061199b8582860161189b565b9150509250929050565b6000806000606084860312156119be576119bd611703565b5b60006119cc86828701611950565b93505060206119dd86828701611950565b92505060406119ee8682870161189b565b9150509250925092565b600060208284031215611a0e57611a0d611703565b5b6000611a1c84828501611950565b91505092915050565b611a2e8161187a565b82525050565b6000602082019050611a496000830184611a25565b92915050565b611a5881611792565b8114611a6357600080fd5b50565b600081359050611a7581611a4f565b92915050565b60008060408385031215611a9257611a91611703565b5b6000611aa085828601611950565b9250506020611ab185828601611a66565b9150509250929050565b600080fd5b600080fd5b7f4e487b7100000000000000000000000000000000000000000000000000000000600052604160045260246000fd5b611afd8261180e565b810181811067ffffffffffffffff82111715611b1c57611b1b611ac5565b5b80604052505050565b6000611b2f6116f9565b9050611b3b8282611af4565b919050565b600067ffffffffffffffff821115611b5b57611b5a611ac5565b5b611b648261180e565b9050602081019050919050565b82818337600083830152505050565b6000611b93611b8e84611b40565b611b25565b905082815260208101848484011115611baf57611bae611ac0565b5b611bba848285611b71565b509392505050565b600082601f830112611bd757611bd6611abb565b5b8135611be7848260208601611b80565b91505092915050565b60008060008060808587031215611c0a57611c09611703565b5b6000611c1887828801611950565b9450506020611c2987828801611950565b9350506040611c3a8782880161189b565b925050606085013567ffffffffffffffff811115611c5b57611c5a611708565b5b611c6787828801611bc2565b91505092959194509250565b600081519050919050565b600082825260208201905092915050565b6000819050602082019050919050565b600082825260208201905092915050565b6000611cbb826117c8565b611cc58185611c9f565b9350611cd58185602086016117e4565b611cde8161180e565b840191505092915050565b6000611cf58383611cb0565b905092915050565b6000602082019050919050565b6000611d1582611c73565b611d1f8185611c7e565b935083602082028501611d3185611c8f565b8060005b85811015611d6d5784840389528151611d4e8582611ce9565b9450611d5983611cfd565b925060208a01995050600181019050611d35565b50829750879550505050505092915050565b60006020820190508181036000830152611d998184611d0a565b905092915050565b600067ffffffffffffffff821115611dbc57611dbb611ac5565b5b611dc58261180e565b9050602081019050919050565b6000611de5611de084611da1565b611b25565b905082815260208101848484011115611e0157611e00611ac0565b5b611e0c848285611b71565b509392505050565b600082601f830112611e2957611e28611abb565b5b8135611e39848260208601611dd2565b91505092915050565b600060208284031215611e5857611e57611703565b5b600082013567ffffffffffffffff811115611e7657611e75611708565b5b611e8284828501611e14565b91505092915050565b60008060408385031215611ea257611ea1611703565b5b6000611eb085828601611950565b9250506020611ec185828601611950565b9150509250929050565b7f4e487b7100000000000000000000000000000000000000000000000000000000600052602260045260246000fd5b60006002820490506001821680611f1257607f821691505b602082108103611f2557611f24611ecb565b5b50919050565b7f4552433732313a20617070726f76616c20746f2063757272656e74206f776e6560008201527f7200000000000000000000000000000000000000000000000000000000000000602082015250565b6000611f876021836117d3565b9150611f9282611f2b565b604082019050919050565b60006020820190508181036000830152611fb681611f7a565b9050919050565b7f4552433732313a20617070726f76652063616c6c6572206973206e6f7420746f60008201527f6b656e206f776e6572206e6f7220617070726f76656420666f7220616c6c0000602082015250565b6000612019603e836117d3565b915061202482611fbd565b604082019050919050565b600060208201905081810360008301526120488161200c565b9050919050565b7f4552433732313a2063616c6c6572206973206e6f7420746f6b656e206f776e6560008201527f72206e6f7220617070726f766564000000000000000000000000000000000000602082015250565b60006120ab602e836117d3565b91506120b68261204f565b604082019050919050565b600060208201905081810360008301526120da8161209e565b9050919050565b7f4552433732313a20696e76616c696420746f6b656e2049440000000000000000600082015250565b60006121176018836117d3565b9150612122826120e1565b602082019050919050565b600060208201905081810360008301526121468161210a565b9050919050565b7f4552433732313a2061646472657373207a65726f206973206e6f74206120766160008201527f6c6964206f776e65720000000000000000000000000000000000000000000000602082015250565b60006121a96029836117d3565b91506121b48261214d565b604082019050919050565b600060208201905081810360008301526121d88161219c565b9050919050565b600081905092915050565b60006121f5826117c8565b6121ff81856121df565b935061220f8185602086016117e4565b80840191505092915050565b600061222782856121ea565b915061223382846121ea565b91508190509392505050565b60008190508160005260206000209050919050565b60006020601f8301049050919050565b600082821b905092915050565b6000600883026122a17fffffffffffffffffffffffffffffffffffffffffffffffffffffffffffffffff82612264565b6122ab8683612264565b95508019841693508086168417925050509392505050565b6000819050919050565b60006122e86122e36122de8461187a565b6122c3565b61187a565b9050919050565b6000819050919050565b612302836122cd565b61231661230e826122ef565b848454612271565b825550505050565b600090565b61232b61231e565b6123368184846122f9565b505050565b5b8181101561235a5761234f600082612323565b60018101905061233c565b5050565b601f82111561239f576123708161223f565b61237984612254565b81016020851015612388578190505b61239c61239485612254565b83018261233b565b50505b505050565b600082821c905092915050565b60006123c2600019846008026123a4565b1980831691505092915050565b60006123db83836123b1565b9150826002028217905092915050565b6123f4826117c8565b67ffffffffffffffff81111561240d5761240c611ac5565b5b6124178254611efa565b61242282828561235e565b600060209050601f8311600181146124555760008415612443578287015190505b61244d85826123cf565b8655506124b5565b601f1984166124638661223f565b60005b8281101561248b57848901518255600182019150602085019450602081019050612466565b868310156124a857848901516124a4601f8916826123b1565b8355505b6001600288020188555050505b505050505050565b7f4552433732313a207472616e736665722066726f6d20696e636f72726563742060008201527f6f776e6572000000000000000000000000000000000000000000000000000000602082015250565b60006125196025836117d3565b9150612524826124bd565b604082019050919050565b600060208201905081810360008301526125488161250c565b9050919050565b7f4552433732313a207472616e7366657220746f20746865207a65726f2061646460008201527f7265737300000000000000000000000000000000000000000000000000000000602082015250565b60006125ab6024836117d3565b91506125b68261254f565b604082019050919050565b600060208201905081810360008301526125da8161259e565b9050919050565b7f4e487b7100000000000000000000000000000000000000000000000000000000600052601160045260246000fd5b600061261b8261187a565b91506126268361187a565b925082820390508181111561263e5761263d6125e1565b5b92915050565b600061264f8261187a565b915061265a8361187a565b9250828201905080821115612672576126716125e1565b5b92915050565b7f4552433732313a20617070726f766520746f2063616c6c657200000000000000600082015250565b60006126ae6019836117d3565b91506126b982612678565b602082019050919050565b600060208201905081810360008301526126dd816126a1565b9050919050565b7f4552433732313a207472616e7366657220746f206e6f6e20455243373231526560008201527f63656976657220696d706c656d656e7465720000000000000000000000000000602082015250565b60006127406032836117d3565b915061274b826126e4565b604082019050919050565b6000602082019050818103600083015261276f81612733565b9050919050565b60006127818261187a565b91507fffffffffffffffffffffffffffffffffffffffffffffffffffffffffffffffff82036127b3576127b26125e1565b5b600182019050919050565b7f4e487b7100000000000000000000000000000000000000000000000000000000600052601260045260246000fd5b60006127f88261187a565b91506128038361187a565b925082612813576128126127be565b5b828204905092915050565b60006128298261187a565b91506128348361187a565b925082612844576128436127be565b5b828206905092915050565b7f4e487b7100000000000000000000000000000000000000000000000000000000600052603260045260246000fd5b7f4552433732313a206d696e7420746f20746865207a65726f2061646472657373600082015250565b60006128b46020836117d3565b91506128bf8261287e565b602082019050919050565b600060208201905081810360008301526128e3816128a7565b9050919050565b7f4552433732313a20746f6b656e20616c7265616479206d696e74656400000000600082015250565b6000612920601c836117d3565b915061292b826128ea565b602082019050919050565b6000602082019050818103600083015261294f81612913565b9050919050565b600081519050919050565b600082825260208201905092915050565b600061297d82612956565b6129878185612961565b93506129978185602086016117e4565b6129a08161180e565b840191505092915050565b60006080820190506129c0600083018761190f565b6129cd602083018661190f565b6129da6040830185611a25565b81810360608301526129ec8184612972565b905095945050505050565b600081519050612a0681611739565b92915050565b600060208284031215612a2257612a21611703565b5b6000612a30848285016129f7565b9150509291505056fea264697066735822122040435e60ad7f7fd7dc82c7a5338a701e19797f6c5ce022b5066253c4a186982d64736f6c63430008110033",
  "immutableReferences": {},
  "source": "// SPDX-License-Identifier: MIT\npragma solidity ^0.8.0;\nimport \"@openzeppelin/contracts/token/ERC721/ERC721.sol\";\n\ncontract apps is ERC721 {\n\n    string[] private appList;\n    address public owner = msg.sender;\n\n    constructor() ERC721(\"apps\", \"APO\") {\n\n    }\n\n    function mint(string memory _app) public {\n        //require(\n        //msg.sender == owner,\n        //\"This function is restricted to the contract's owner!\"\n        //);\n        uint _id = appList.length;\n        appList.push(_app);\n        _mint(msg.sender, _id);\n    }\n\n    function getAppList() public view returns (string[] memory) {\n        return appList;\n    }\n}",
  "sourcePath": "/app/contracts/apps.sol",
  "compiler": {
    "name": "solc",
    "version": "0.8.17+commit.8df45f5f.Emscripten.clang"
  },
  "schemaVersion": "3.4.10",
  "updatedAt": "2022-11-05T18:44:43.339Z",
  "networkType": "ethereum",
  "devdoc": {
    "kind": "dev",
    "methods": {
      "approve(address,uint256)": {
        "details": "See {IERC721-approve}."
      },
      "balanceOf(address)": {
        "details": "See {IERC721-balanceOf}."
      },
      "getApproved(uint256)": {
        "details": "See {IERC721-getApproved}."
      },
      "isApprovedForAll(address,address)": {
        "details": "See {IERC721-isApprovedForAll}."
      },
      "name()": {
        "details": "See {IERC721Metadata-name}."
      },
      "ownerOf(uint256)": {
        "details": "See {IERC721-ownerOf}."
      },
      "safeTransferFrom(address,address,uint256)": {
        "details": "See {IERC721-safeTransferFrom}."
      },
      "safeTransferFrom(address,address,uint256,bytes)": {
        "details": "See {IERC721-safeTransferFrom}."
      },
      "setApprovalForAll(address,bool)": {
        "details": "See {IERC721-setApprovalForAll}."
      },
      "supportsInterface(bytes4)": {
        "details": "See {IERC165-supportsInterface}."
      },
      "symbol()": {
        "details": "See {IERC721Metadata-symbol}."
      },
      "tokenURI(uint256)": {
        "details": "See {IERC721Metadata-tokenURI}."
      },
      "transferFrom(address,address,uint256)": {
        "details": "See {IERC721-transferFrom}."
      }
    },
    "version": 1
  },
  "userdoc": {
    "kind": "user",
    "methods": {},
    "version": 1
  }
}